:020000040800F2
:10000000000002201DA4000891A0000893A0000891
:1000100095A0000897A0000899A000080000000023
:100020000000000000000000000000009BA000088D
:100030009DA00008000000009FA00008A1A00008EB
:100040006DA400086DA400086DA400086DA400084C
:100050006DA400086DA400086DA400086DA400083C
:100060006DA400086DA400086DA400086DA400082C
:100070006DA400086DA400086DA400086DA400081C
:100080006DA400086DA400086DA400086DA400080C
:100090006DA400086DA400086DA400086DA40008FC
:1000A0006DA400086DA400086DA400086DA40008EC
:1000B0006DA400086DA400086DA400086DA40008DC
:1000C0006DA400086DA400086DA400086DA40008CC
:1000D0006DA400086DA400086DA400086DA40008BC
:1000E0006DA400086DA400086DA400086DA40008AC
:1000F0006DA400086DA400086DA400086DA400089C
:100100006DA400086DA400086DA400086DA400088B
:100110006DA400086DA400086DA400086DA400087B
:100120006DA400086DA400086DA400086DA400086B
:100130006DA400086DA400086DA400086DA400085B
:100140006DA400086DA400086DA40008A5A0000817
:100150006DA400086DA400086DA400086DA400083B
:100160006DA400086DA400086DA400086DA400082B
:100170006DA400086DA400086DA400080000000034
:080180006DA400086DA4000845
:1001900010B5054C237833B9044B13B10448AFF3C1
:1001A00000800123237010BD7C1D00200000000092
:1001B00070B8000808B5034B1BB103490348AFF3FF
:1001C000008008BD00000000801D002070B80008FD
:1001D00010F8012B11F8013B012A28BF9A42F7D0F1
:1001E000D01A7047034613F8012B002AFBD1181AC6
:1001F000013870470000000000000000000000000F
:1002000001F0FF01102A2BDB10F0070F08D010F8C7
:10021000013B013A8B422DD010F0070F42B3F6D1CB
:10022000F0B441EA012141EA014122F007047FF0E4
:1002300000070023F0E80256083C85EA010586EA3B
:10024000010685FA47F5A3FA87F586FA47F6A5FA77
:1002500087F68EB9EED1F0BC01F0FF0102F0070283
:1002600032B110F8013B013A83EA010313B1F8D12E
:100270000020704701387047002D06BF354603380F
:10028000073815F0010F07D1013015F4807F02BF48
:10029000013015F4C03F0130F0BC0138704700BF99
:1002A00053B94AB9002908BF00281CBF4FF0FF31DD
:1002B0004FF0FF3000F07AB9ADF1080C6DE904CED3
:1002C00000F006F8DDF804E0DDE9022304B0704731
:1002D0002DE9F0478C460D460446089E002B51D16F
:1002E0008A4217466DD9B2FA82FEBEF1000F0BD0DA
:1002F000CEF1200C01FA0EF520FA0CFC02FA0EF7F2
:100300004CEA050C00FA0EF44FEA174A250CBCFB28
:10031000FAF81FFA87F90AFB18CC45EA0C4508FBE6
:1003200009F3AB420AD9ED1908F1FF3280F02381BD
:10033000AB4240F22081A8F102083D44ED1AA4B27C
:10034000B5FBFAF00AFB105544EA054400FB09F935
:10035000A14509D9E41900F1FF3380F00A81A145D4
:1003600040F2078102383C44A4EB090440EA08400B
:100370000021002E61D024FA0EF400233460736053
:10038000BDE8F0878B4207D9002E54D0002186E8C3
:1003900021000846BDE8F087B3FA83F1002940F058
:1003A0008E80AB4202D3824200F2FA80841A65EB5F
:1003B00003050120AC46002E3FD086E81010BDE8B2
:1003C000F08712B90127B7FBF2F7B7FA87FEBEF143
:1003D000000F34D1EB1B3A0C1FFA87FC0121B3FB51
:1003E000F2F8250C02FB183345EA03450CFB08F331
:1003F000AB4207D9ED1908F1FF3002D2AB4200F24F
:10040000D1808046ED1AA3B2B5FBF2F002FB105585
:1004100043EA05440CFB00FCA44507D9E41900F1AC
:10042000FF3302D2A44500F2B8801846A4EB0C04B6
:1004300040EA08409DE731463046BDE8F087CEF1FE
:10044000200405FA0EF307FA0EF720FA04F83A0C26
:1004500025FA04F448EA0308B4FBF2F14FEA184520
:1004600002FB11441FFA87FC45EA044501FB0CF32B
:10047000AB4200FA0EF409D9ED1901F1FF3080F01A
:100480008A80AB4240F2878002393D44EB1A1FFA62
:1004900088F5B3FBF2F002FB103345EA034500FB9D
:1004A0000CF3AB4207D9ED1900F1FF386FD2AB4224
:1004B0006DD902383D44EB1A40EA01418FE7C1F1A2
:1004C000200722FA07F88B4005FA01F448EA0303F3
:1004D00020FA07FE4FEA134CFD404EEA040EB5FB2E
:1004E000FCF94FEA1E440CFB19551FFA83F844EA45
:1004F000054509FB08F4AC4202FA01F200FA01FAE0
:1005000008D9ED1809F1FF3043D2AC4241D9A9F125
:1005100002091D442D1B1FFA8EFEB5FBFCF00CFBDF
:1005200010554EEA054400FB08F8A04507D9E41829
:1005300000F1FF3529D2A04527D902381C4440EAF2
:100540000940A4EB0804A0FB02894C45C6464D4671
:1005500015D312D056B1BAEB0E0364EB050404FABE
:1005600007F7CB401F43CC40376074600021BDE8E3
:10057000F0871846F8E69046E0E6C245EAD2B8EBC6
:10058000020E69EB03050138E4E72846D7E7404649
:1005900091E78146BEE7014678E702383C4445E7EB
:1005A000084608E7A8F102083D442BE7704700BF62
:1005B00038B50E4A0E4B054618784FF47A73B3FBE4
:1005C000F0F31068B0FBF3F000F0AAF8044658B955
:1005D0000F2D09D8024629464FF0FF3000F05EF893
:1005E000044B20461D6038BD012038BDA81B0020EB
:1005F000000000200400002008B50B4B1A6842F4EC
:1006000000721A601A6842F480621A601A6842F432
:1006100080721A60032000F02FF80020FFF7C8FF57
:1006200009F012FC002008BD003C0240034A044BC4
:1006300011681B780B441360704700BF64230020CF
:1006400000000020014B1868704700BF64230020A1
:1006500038B50446FFF7F6FF631C1CBF054B1B783B
:10066000054618BFE418FFF7EDFF401B8442FAD897
:1006700038BD00BF00000020074AD36823F4E063C0
:100680001B041B0C43F0BF63000243F4003300F46F
:10069000E0600343D360704700ED00E0174B30B5D6
:1006A000DC68C4F30224C4F10703251D042B28BF12
:1006B0000423062D4FF0010505FA03F303F1FF3380
:1006C0008CBF033C00241940A14005FA04F4013C0E
:1006D0002240002842EA01024FEA0212ADBF00F1B7
:1006E000604000F00F00064B00F56140B5BFD2B28C
:1006F000D2B21A5480F8002330BD00BF00ED00E0F4
:1007000014ED00E0002808DB4209012300F01F007F
:1007100003FA00F0014B43F82200704700E100E0CB
:100720000138B0F1807F0AD2064B074A5860F021A9
:1007300082F823100020072298601A607047012079
:10074000704700BF10E000E000ED00E082B0074B12
:100750004FF4FA521B68B3FBF2F3019300BF019B05
:100760005A1E0192002BF9D102B07047A81B00203D
:1007700007B50023019341F2180103685A5842F467
:1007800080125A505B580193FFF7E0FF019A03680B
:100790005A5003B05DF804FB70B5044629B14FF41C
:1007A0000063C3604FF480438360E3692268E068BC
:1007B0001568002BA36843EA0003304843F4007334
:1007C00000EA05000CBF4FF48061002103430B4396
:1007D000136001201568FFF73BFF236840221D606E
:1007E00001205A605D68FFF733FF23685D600025D4
:1007F0009D60DD609A6922F0BE021204120C42F084
:1008000080029A6101209E69FFF722FF2368012080
:100810009E61DD61DD69FFF71BFF2268184BD56122
:1008200041F21805012051590B4043F0087343F081
:10083000040353515659FFF70BFF2368114A5E51C9
:1008400003F5805301201A601D68FFF701FF22683D
:1008500002F580531D60A369012B07D141F21C01F1
:10086000535843F4803343F0400353506369064ABE
:10087000998811601A68054B1A6070BD0F8120FFBE
:10088000233FDEF88020C1024080024044800240C5
:10089000F0B590F84540012C4FF0020433D001250B
:1008A00080F8455080F84440C16201F120040025E1
:1008B0004FF4801740F2F45E03F1FF3C9D420BD1F0
:1008C000026841F21003D150012380F84430002324
:1008D00080F845301846F0BD0EFB052644F8186C2C
:1008E000C66944F8207C2EB954F8206C46F44006C2
:1008F00044F8206C65452CBF0E46264644F8146C1F
:1009000001352034DAE72046F0BD2DE9F04190F8BA
:100910004540012C4FF0020430D0012580F84550AD
:1009200080F84440816201F1200400254FF0004628
:1009300044F2F45740F2F45E03F1FF3C9D420CD1C7
:10094000026841F20C03D150012380F844300023A7
:1009500080F845301846BDE8F0810EFB052844F8C4
:10096000188C65452CBF8846A04644F8206C44F896
:100970001C7C44F8148C01352034DFE72046BDE8A8
:10098000F081000090F84530012BF0B54FF00203E4
:1009900068D0012280F8452080F8443029B980F8D9
:1009A000442080F845101046F0BDC36A1C68002C36
:1009B00006DA122380F84430002380F84530F2E74D
:1009C00040F2F454A1422ED9B1FBF4F204FB12140C
:1009D0003CB30132244C01F2F45104FB0211C1F387
:1009E0000C01002440F2F456571E1D6825F04055B6
:1009F0001D601CB91D6845F080551D60A74208BFE9
:100A00001D685E6004BF45F000551D601D6808BF8D
:100A10005960013445F0004594421D60DB68E4D123
:100A20000DE0012AD6D11A6842F040521A601A68C5
:100A3000C1F30C0142F0004259601A60DB68C362E6
:100A400041F2140203689958490705D504219950C9
:100A500041F2040200219950012380F84430002320
:100A600080F845301846F0BD0CFAFFFF90F845308D
:100A7000012B30B54FF0020323D080F84430836A55
:100A80001A680124002A80F8454027DB1A68D968D3
:100A900012F4807217D0826B43632244A24208BFD3
:100AA00003631B688263C3F30D43043BC363036B9F
:100AB0009B680364012380F844300023816280F83E
:100AC0004530184630BD1D688162AD0555BF836B4A
:100AD0000363013342634CBF8463836301230022B9
:100AE00080F8443080F84520EBE7F8B590F84430C2
:100AF000822B0546164630D00268822380F84430A7
:100B00001369890101F4F86403F01C012143048A8C
:100B1000E402A4B20C4344F001041461FFF792FD17
:100B2000074614F0010007D12B685B699BB2336064
:100B3000012385F84430F8BDFFF784FDC01BB0F5F4
:100B4000803F07D3012385F84430002385F84530E2
:100B50000320F8BD2B681C69E3E70220F8BD90F87C
:100B60004430422B70B505462ED0422380F84430E5
:100B700003688C01186904F4F86444F0030400F07D
:100B80001C0020432C8AE402A4B2044392B25A61AE
:100B90001C61FFF757FD064614F0010003D1012345
:100BA00085F8443070BDFFF74DFD801BB0F5803FE8
:100BB00007D3012385F84430002385F8453003200E
:100BC00070BD2B681C69E7E7022070BDF7B50023F4
:100BD00000930446002800F0DE8090F8443003F0D3
:100BE000FF021BB980F8452008F08AFD002301931D
:100BF0006A4B5A6C42F480425A645B6C03F4804343
:100C00000193019B664B5A6822F400025A605A68AD
:100C1000216A0A435A60236803F580531A6842F038
:100C200001021A60FFF70EFD0546236803F58052A6
:100C30001268D0071DD41D6901F050F9594B5A4A6A
:100C40000344934225F01C0522D845F0080523688B
:100C50004FF400421D6100212046FFF780FF05464A
:100C600068B3012120460125FFF796FD84F8445022
:100C70000BE0FFF7E7FC401BB0F5FA7FD5D9032561
:100C8000002384F8445084F84530284603B0F0BD72
:100C9000464B474A0344934202D845F00C05D6E739
:100CA000444B454A03449342D1D9444B444A0344FC
:100CB000934294BF45F0040545F01005C7E7FF20B7
:100CC000FFF7C6FC6368002B53D0FFF7BBFC41F273
:100CD000883706466A4601212046FFF706FFFFF7E0
:100CE000B1FC801BB8420BD901212046FFF754FD0F
:100CF000012384F84430002384F845300325C4E7F9
:100D0000009B5907E6D54FF4805200212046FFF79B
:100D100026FF0028A5D1FFF795FC41F2883706464B
:100D20006A4601212046FFF7E0FEFFF78BFC801B9F
:100D3000B842D9D8009B9A06F2D56A461F212046B0
:100D4000FFF7D3FE00288CD1009B13F0100218BFD0
:100D50004FF400625B074CBF00234FF48043E26016
:100D6000A36000212046FFF717FD012384F84430DB
:100D70008BE7A368E2685B0843EAD20292B2294695
:100D80002046FFF7ECFE00287FF46BAF40F6FF70C3
:100D9000FFF75EFCE5E7012577E700BF003802407A
:100DA0000038014000D3CEFEBFE1E40040F1E9FD90
:100DB0003F787D0100796CFCFF596202001F0AFA3E
:100DC0007FF0FA0290F84530012B73B505464FF0DD
:100DD000020031D000242B6885F8440001941A6881
:100DE000012642F0080285F845601A601B680193ED
:100DF000FFF7ACFC2B68019A1A6000941A6842F065
:100E000004021A601B680093FFF7A0FC2B68009A8D
:100E10001A602846FFF7ACFC2A6841F21803204606
:100E2000D15841F40051D150D15841F00201D15074
:100E300085F8446085F8454002B070BD2DE9F04F5B
:100E400085B00B68DFF8AC81684ADFF8AC9101939C
:100E500000230124019D9C402540AC4240F0B0801D
:100E60004C6824F0100C0CF1FF36012E4FEA430EB3
:100E700012D88768032606FA0EF627EA0607CE6818
:100E800006FA0EF63E4386604768C4F3001627EA6A
:100E900005079E403E4346600326C76806FA0EF6E5
:100EA000F64307EA060A8F6807FA0EF747EA0A07C9
:100EB000BCF1020FC76016D14FEAD30A00EB8A0AD1
:100EC00003F0070BDAF820704FEA8B0B4FF00F0C92
:100ED0000CFA0BFC27EA0C0C0F6907FA0BF747EA30
:100EE0000C07CAF8207007683E4004F0030707FAB1
:100EF0000EFE4EEA06060660E60061D54FF0000BD6
:100F0000CDF80CB0D8F84470394E47F48047C8F893
:100F10004470D8F8447007F480470397039F23F088
:100F2000030707F1804707F59C3703F0030CD7F858
:100F300008A04FEA8C0C4FF00F0E0EFA0CFEB042D8
:100F40002AEA0E0E43D006F58066B04241D006F57F
:100F50008066B0423FD006F58066B0423DD006F5CF
:100F60008066B0423BD048453BD006F50066B042B3
:100F700039D006F58066B04214BF0826072606FA67
:100F80000CF646EA0E06BE601668EF4314F4803F86
:100F90000CBF3E402E431660566814F4003F0CBF51
:100FA0003E402E435660966814F4801F0CBF3E40AE
:100FB0002E439660D668A40254BF3E402E43D660AE
:100FC0000133102B7FF445AF05B0BDE8F08F5E46CE
:100FD000D5E70126D3E70226D1E70326CFE704268B
:100FE000CDE70526CBE70626C9E700BF003C014058
:100FF0000000024000380240001402400AB1816142
:1010000070470904FBE72DE9FF47044690F8B80252
:101010009DF830709DF834E0BDF838C0012828D024
:10102000282000FB01400125002612F0800F84F8E3
:10103000B85202F07F0908BF354680F83D6080F85D
:10104000383080F8391080F83FE080F83A9080F826
:101050003B5080F83C70A0F840C0CDF808C08DE847
:101060008040206801F0C6FA84F8B86204B0BDE898
:10107000F0870220FAE790F8B832012B10B5044649
:1010800009D0012380F8B832006801F03DFB002050
:1010900084F8B80210BD022010BD2DE9F0410746CA
:1010A0008AB0002841D090F8B932046803F0FF02FA
:1010B0001BB980F8B82209F083F8032387F8B93206
:1010C000E36B3C4613F4807354F8100B08BF3B618C
:1010D00001F04CF90FCC6D460FC50FCC0FC594E84D
:1010E000030085E8030007F104083E4698E80E0077
:1010F000386801F0F5F856F8100B012101F03CF9C1
:101100000FCE6D460FC50FCE0FC594E8030085E8DE
:10111000030098E80E00386801F0ECF9012387F825
:10112000B93200200AB0BDE8F0810120FAE70000E2
:10113000F0B5282404FB01049DF81470069EBDF848
:101140001C5084F83B2084F83F306FB90327022BF2
:1011500084F842702BD0BB4229D0012B31D12823F7
:1011600003FB010300222AE04FF0020E84F842E064
:10117000032B26D801A454F823F000BF8D110008DA
:101180005F110008AF110008AF110008012F18D13E
:10119000BAB925B9282303FB010383F8517028232A
:1011A00003FB010393F851204AB1022207E02823F0
:1011B00003FB0103D2B993F85140002CF5D183F819
:1011C0004220282404FB0103002283F83910194629
:1011D0005E649D6483F85C20DA6483F85D203831B6
:1011E000027C0068BDE8F04001F0F2BA93F85020AC
:1011F000DAE700BF2DE9F04F066887B004463046B5
:1012000001F01AF9012840F0B480206801F010F9CB
:10121000002800F0AE80206801F00AF9870248BF7C
:101220002368206844BF4FF400125A6101F000F9AE
:10123000C50248BF2368206844BF4FF480125A613A
:1012400001F0F6F8400148BF2368206844BF4FF022
:1012500080625A6101F0ECF8810748BF236820687A
:1012600044BF02225A6101F0E3F8820010D5D6F89B
:10127000403423F02E03C6F84034204608F0F2FF35
:101280000121206801F0DCF823684FF000525A6118
:10129000206801F0CDF8C30142D52568D5F8403467
:1012A0000493D5F840340593059B23F02E03059352
:1012B000049B9F070DD5049BD80706D5AB6923F087
:1012C0000053AB61204608F0C9FF059B43F00203C1
:1012D0000593049B190719D5059B43F00803059353
:1012E000049B5A0750D5A169022945D1049B206867
:1012F00003F4C023B3F5802F18BF012101F0A0F83B
:10130000204608F0B4FF204608F0A8FF049B9B0687
:1013100042BF059B43F020030593059BC5F840346D
:10132000206801F085F8070705D5204608F092FFF0
:10133000236808225A61206801F07AF8850112D5E5
:10134000206801F0DCF94FF0000A019006F5A06872
:1013500028274FF00209D346A3689A4523D3236870
:101360004FF000725A61206801F062F8C30600F184
:10137000208207B0BDE8F08FE368012B04BF4EF672
:101380006022C5F80424BBE7204608F074FFD5F8B6
:101390004034226823F02E03C5F84034936943F0AB
:1013A00000539361B2E7019A0AF00F0322FA03F3A4
:1013B000D80740F18A80D8F80030206813F4004F35
:1013C0005FFA8AF500F004816A0100F5A063D6187F
:1013D000B168490713D50421B160F16841F00201F9
:1013E000F160B168890542D5F368206843F00203D3
:1013F000F360294601F088F94FF40073C7E0B16843
:10140000890602D52021B160EBE7B168090715D53F
:10141000F168039341F00201F16007FB05414FF0D1
:10142000050E81F85DE01021B1600821B160294608
:10143000029201F069F9029A039BD2E7B16849056B
:10144000CFD5F168039341F00201F1602946029281
:1014500001F05AF91021B16007FB0541082081F81D
:101460005D004FF48061B160039B029AB9E7B168F7
:10147000C8073DD5216949B107FB054E3069DEF843
:101480004810C0F31200091ACEF84C1007FB054EA5
:1014900001208EF85D00CEF858B0B0609EF83F1085
:1014A00011F0FD0F16D1F368206843F00203F360DA
:1014B000294601F029F91023B36007FB054595F88B
:1014C000503083F0010385F850300AF1010A08F129
:1014D000200841E70329F0D1D15841F00051D15003
:1014E0008EF85C0002462946204608F0BFFEE4E77D
:1014F000B168890736D5F16807FB054021F0020184
:10150000F16090F85D1001290CD180F85C1007FBA8
:101510000543C6F8089093F85C202946204608F059
:10152000A5FED2E70529F0D0062901D0082914D15B
:1015300007FB0541886D01300328886583BF0420BF
:10154000C1F858B081F85C0081F85C90D15821F066
:10155000804141F00041D150D9E70329D7D180F82B
:101560005C90F3E7B16811F0800112D0F368206855
:1015700043F00203F36007FB054329469A6D0132ED
:101580009A65062283F85D2001F0BEF88023B360DF
:101590009BE7B368DA0698D507FB054292F83F301F
:1015A000032B0AD19165F368206843F00203F360CE
:1015B000294601F0A9F81023E9E713F0FD03FAD159
:1015C00093652369002BF6D1032382F85D30EAE7A7
:1015D000690100F5A0628E18B36813F0040E06D0FE
:1015E0000423B360F36843F00203F3606DE7B3686C
:1015F00013F0200314D02023B36007FB054393F8B6
:101600003D20012A7FF461AF83F83DE083F85C90D0
:10161000F36843F00203F360294601F075F854E7DC
:10162000D6F808E01EF0400F11D007FB0542042158
:1016300082F85D10012182F83D109365F36843F054
:101640000203F360294601F05FF840239FE7B36887
:1016500013F4007E05D0F36843F00203F3602946DB
:10166000C8E6B368DB0711D5F26807FB054342F013
:101670000202C3F858E02946F260029301F044F8F0
:10168000029B0122B26083F85D201EE7B3681B074E
:101690000ED50823B360F36843F00203F3602946D4
:1016A00001F032F807FB0545052385F85D300CE7AE
:1016B000B368DB0615D507FB0543032283F85D20DD
:1016C00093F83D20C3F858B02AB993F83C2012B9DA
:1016D000012283F83D20F36843F00203F3602946BA
:1016E00067E7B3681B060CD5F36843F00203F360A9
:1016F000294607FB054501F007F8062385F85D300C
:1017000044E7B3685B050FD5F36843F00203F36069
:10171000294600F0F9FF1023B3604FF48063B360F3
:1017200007FB05450823C0E7B36898077FF5CDAEF2
:10173000F36807FB054023F00203F36090F85D3087
:10174000012B0ED180F85C3090F83F30023B012B2A
:101750003FF6DDAE90F8513083F0010380F8513050
:10176000D5E6032B02D180F85C90D0E6042BFAD0AA
:10177000052B02D180F85C30C9E6062B02D0082B7D
:101780007FF4C5AE07FB0540836D0133032B8365F2
:1017900084BF042380F85C308B5888BFC0F858B0F1
:1017A00023F0804343F0004398BF80F85C908B5057
:1017B000ADE62668B36923F01003B361356AC5F35B
:1017C0004342022A29D1C5F30A18B8F1000F24D0E8
:1017D00005F00F05282707FB0547796CE9B142465C
:1017E000304600F017FE7B6C43447B64FB6C434443
:1017F000FB6406F5A0666B019A1911690A4A0A4052
:101800005AB19A5922F0804242F000429A5197F818
:10181000503083F0010387F850302268936943F019
:1018200010039361A5E500BF0000F81F38B590F8DC
:10183000B832012B04460DD0012580F8B85200685B
:1018400000F08EFD2946206800F034FE002084F868
:10185000B80238BD022038BD90F8B832012B10B55F
:10186000044609D0012380F8B832006801F062F81C
:10187000002084F8B80210BD022010BD006800F0FE
:10188000FBBD282303FB010191F85C00704728236E
:1018900003FB0101C86C7047006800F0A6BE006839
:1018A00000F098BE70B5044608B9012070BD90F8EC
:1018B0003D3003F0FF021BB980F83C2008F0E0FA4D
:1018C000242384F83D3023681A6822F001021A604C
:1018D0001A6842F400421A601A6822F400421A6040
:1018E00000F002FB6568414B9D424DD8404B984249
:1018F000DBD922683F495368B0FBF1F123F03F0385
:101900000B435360136A23F03F0301311943116203
:10191000D169364B21F44F419D4221F0FF0100F186
:10192000FF3048D86D00B0FBF5F00130C0F30B0379
:10193000042B38BF04230B43D3611168206AE36989
:1019400021F0C00103430B4313609168E0682369F1
:1019500021F40341034321F0FF010B439360D1685D
:10196000A069636921F0FF0103430B43D36013684F
:1019700043F00103136000202023206484F83D30ED
:10198000206384F83E0070BD1B4B98428DD92268BD
:10199000184E5368B0FBF6F623F03F033343536011
:1019A000136A4FF49671714323F03F034FF47A7634
:1019B000B1FBF6F1A9E7A36853B905EB4503B0FB0A
:1019C000F3F0431CC3F30B036BB143F40043B2E7E2
:1019D00019236B43B0FBF3F0431CC3F30B0313B1A8
:1019E00043F44043A7E70123A5E700BFA086010019
:1019F0007F841E0040420F00FF083D002DE9F341A7
:101A0000044608B901203FE00368DD0710D42368CD
:101A100098075AD423681A0700F19C8023685B0753
:101A200000F1BA80A069002840F01B8100202BE063
:101A3000A44B9A6802F00C02042A07D09A6802F0BC
:101A40000C02082A0AD15B68590207D59D4B1B6816
:101A50009A03DCD56368002BD9D1D3E76368994D2D
:101A6000B3F5803F13D12B6843F480332B60FEF72E
:101A7000E9FD944D06462B689B03C8D4FEF7E2FDB2
:101A8000801B6428F7D9032002B0BDE8F081B3F5CC
:101A9000A02F04D12B6843F480232B60E3E72A684E
:101AA00022F480322A602A6822F480222A60002BE5
:101AB000DDD1FEF7C7FD06462B689F03A7D5FEF7CD
:101AC000C1FD801B6428F7D9DDE77E4B9A6812F0D0
:101AD0000C0F07D09A6802F00C02082A11D15B683B
:101AE0005E020ED4774B1A68950702D5E268012A88
:101AF00088D11A68216922F0F80242EAC1021A600C
:101B000088E7E268704BB2B101221A60FEF79AFDD5
:101B10006C4D06462B68980707D52B68226923F081
:101B2000F80343EAC2032B6074E7FEF78BFD801BCA
:101B30000228EFD9A7E71A60FEF784FD614D06463B
:101B40002B6899077FF566AFFEF77CFD801B0228A6
:101B5000F6D998E762695D4B7AB101221A60FEF707
:101B600071FD584D06466B6F9F073FF557AFFEF767
:101B700069FD801B0228F6D985E71A60FEF762FD31
:101B8000504D06466B6F98077FF548AFFEF75AFD3C
:101B9000801B0228F6D976E74A4B1A6C12F0805265
:101BA00028D101921A6C42F080521A641B6C03F027
:101BB00080530193019B0126454D2B68D9051BD508
:101BC000A368404D012B27D12B6F43F001032B67F6
:101BD000FEF738FD3B4D074641F288382B6F9B07D7
:101BE00039D5002E3FF41EAF364A136C23F08053D4
:101BF000136417E70026DFE72B6843F480732B603C
:101C0000FEF720FD07462B68DA05D9D4FEF71AFD4A
:101C1000C01B0228F7D936E7052B04D12B6F43F000
:101C200004032B67D0E72A6F22F001022A672A6F8C
:101C300022F004022A67002BCAD1FEF703FD41F20D
:101C4000883807462B6F9807CBD5FEF7FBFCC01BE7
:101C50004045F7D917E7FEF7F5FCC01B4045BDD955
:101C600011E7184DAB6803F00C03082B47D0194E51
:101C700000230228336035D1FEF7E4FC07462B68C9
:101C8000990129D4226AE3691343626A43EA821301
:101C9000E26A43EA0263A26A0A4C5208013A43EA42
:101CA00002436B6001233360FEF7CCFC05462368DA
:101CB0009A013FF5BBAEFEF7C5FC401B0228F6D9E2
:101CC000E1E600BF0038024000004742800E474274
:101CD0000070004060004742FEF7B4FCC01B0228C1
:101CE000CDD9D0E6FEF7AEFC04462B689B017FF50C
:101CF0009DAEFEF7A7FC001B0228F6D9C3E601281B
:101D00003FF4C2AEA868E36900F480029A427FF40F
:101D100079AE226A00F03F0393427FF473AE626AA9
:101D200047F6C073034093427FF46CAEA26A00F49E
:101D3000403393427FF466AEE36A00F07060C01AED
:101D400018BF0120A0E600BF134908B58B6803F057
:101D50000C03042B03D0082B03D0104808BD1048F7
:101D600008BD4A684B68496813F4800314BF0C48E7
:101D70000A48C1F3881118BF002302F03F02A1FBFB
:101D80000001FEF78DFA044B5B68C3F30143013396
:101D90005B00B0FBF3F008BD003802400024F40003
:101DA00000127A002DE9F0410D46044610B90120D9
:101DB000BDE8F081444B1A6802F00F028A4229D331
:101DC00021688F072ED4C80741D43F4B1A6802F010
:101DD0000F02954267D3226851076DD4130707D5C8
:101DE0003A4A2169936823F4604343EAC10393604C
:101DF000FFF7AAFF354B364A9B68C3F30313D35C46
:101E0000D840344B1860344B1868FEF7D1FB0020E3
:101E1000BDE8F081CAB21A701B6803F00F03994243
:101E2000C5D1CDE7294B11F0040F1EBF9A6842F4CB
:101E3000E0529A600E0742BF9A6842F460429A608C
:101E40009A68A06822F0F00202439A60BBE76268D9
:101E50001E4B012A1DD11B6813F4003FA7D01B4E57
:101E6000B36823F003031343B360FEF7EBFB41F2C7
:101E700088380746B368626803F00C03B3EB820F3F
:101E8000A3D0FEF7DFFBC01B4045F3D90320BDE81C
:101E9000F081911E01291B6802D813F0007FDDE755
:101EA00013F0020FDAE7EAB21A701B6803F00F03AF
:101EB0009D427FF47CAF8EE70449E0688B6823F491
:101EC000E05303438B6089E7003C02400038024046
:101ED000D3D50008A81B002004000020014B18687F
:101EE000704700BFA81B0020044B054A9B68C3F342
:101EF0008223D35C034A1068D84070470038024000
:101F0000E3D50008A81B0020044B054A9B68C3F3D7
:101F10004233D35C034A1068D8407047003802400F
:101F2000E3D50008A81B002010B50446002836D0D1
:101F30000023836290F8513003F0FF021BB980F850
:101F4000502007F0D7FF2168A068A269022384F817
:101F500051300B6823F040030B6063680343E06873
:101F600003432069034360690343E0690343206A34
:101F70000343A06A034302F4007003430B60120C96
:101F8000636A02F004021A434A60CB6923F40063D7
:101F9000CB6100200123606584F8513010BD012021
:101FA00010BD000038B50368C1681A69044622F400
:101FB00040520A431A612569A268D968C0692A4358
:101FC000656921F416412A4321F00C0102430A43BA
:101FD000DA605A69A16922F440720A43B0F5004FF1
:101FE0005A61254A29D1934203D002F58062934277
:101FF00020D1FFF789FF6268256892184FF000032F
:102000004FF019015B41A0FB0101FEF749F9642182
:10201000B0FBF1F401FB1403DB003233B3FBF1F34B
:1020200003F007025B0002EB041203F4F87313449D
:10203000AB6038BDFFF758FFDDE7934202D00F4A8F
:10204000934216D1FFF760FF6368256819219A0053
:10205000A0FB01019B0FFEF723F96422B0FBF2F114
:1020600002FB11031B013233B3FBF2F303EB011349
:10207000DEE7FFF739FFE7E70010014000140140F9
:10208000F8B504460E4617461D4621680B6836EA29
:10209000030301D10020F8BD6B1CF7D095B923686C
:1020A000DA6822F4D072DA605A6922F001025A61C9
:1020B000202384F8393084F83A30002384F838300B
:1020C0000320F8BDFEF7BEFAC01B8542DDD2E6E76D
:1020D00010B5044640B390F8393003F0FF021BB945
:1020E00080F8382007F052FF2268242384F8393022
:1020F000D36823F40053D3602046FFF753FF2368CF
:102100001A6922F490421A615A6922F02A025A612D
:10211000DA6842F40052DA6000202023E06384F899
:10212000393084F83A3010BD012010BD2DE9F84354
:102130001F4690F83930202B04460D46904651D169
:1021400000294CD0002A4AD090F83830012B49D0D1
:10215000012380F838304FF000092123C0F83C906B
:1021600080F83930FEF76EFAA4F824800646A4F809
:10217000268084F83890E38C9BB25BB93B463246AC
:1021800040212046FFF77CFFA0B9202384F8393096
:10219000BDE8F883E38C013B9BB2E384A368B3F50D
:1021A000805F32463B464FF0800120460ED1FFF75C
:1021B00067FF10B10320BDE8F8832B882268C3F3C2
:1021C00008035360236943B90235D4E7FFF758FF8A
:1021D0000028EFD123682A785A600135CBE7012027
:1021E000BDE8F8830220BDE8F8832DE9F8431F46D7
:1021F00090F83A30202B04460D46904654D10029E1
:102200004FD0002A4DD090F83830012B4CD001230C
:1022100080F838304FF000092223C0F83C9080F855
:102220003A30FEF70FFAA4F82C800646A4F82E8068
:1022300084F83890E08D80B220B9202384F83A30B9
:10224000BDE8F883E38D013B9BB2E385A368B3F55A
:10225000805F32463B464FF02001204612D1FFF707
:102260000FFF10B10320BDE8F883236822695B6883
:1022700022B9C3F3080325F8023BDBE7DBB225F8FC
:10228000013BD7E7FFF7FCFE0028EBD1236821696B
:102290005B686A1C11B92B701546CBE703F07F030E
:1022A000F9E70120BDE8F8830220BDE8F8830000CB
:1022B0000A4B013B01D1032070470269002AF8DA7A
:1022C0000369064A43F001030361013AF3D003694D
:1022D00013F00103F9D11846704700BF410D030008
:1022E00084B038B505AD85E80E000A9B012B044685
:1022F00025D1836B23F480338363C36823F4840381
:1023000023F04003C360C36823F44013C360119BF0
:10231000012B02BFC36843F48013C360FFF7C8FFFB
:10232000089B012B07D1A36843F00603A360A368B1
:1023300043F02003A360BDE8384004B07047C36891
:1023400043F04003C360FFF7B3FF0E9B23B9A36BB9
:1023500043F48033A363E3E7A36B23F48033F9E70B
:10236000836843F00103836000207047836823F093
:10237000010383600020704708B5C368012923F07A
:10238000C043C36008D1C36843F00053C360322028
:10239000FEF75EF9002008BD19B9C36843F0804319
:1023A000F4E7012008BD0000890141F02001064A40
:1023B0000161013A05D0036913F02003F9D11846F1
:1023C00070470320704700BF410D03001023064AE9
:1023D0000361013A05D0036913F01003F9D11846DF
:1023E00070470320704700BF410D030010B59DF8F2
:1023F00008404CB9033300EB023023F0030300F52F
:1024000080500B44994201D1002010BD51F8042B9B
:102410000260F7E7033222F003020A4400F580501D
:10242000914201D108467047036841F8043BF7E741
:102430004269806910407047406900F001007047B0
:10244000D0F8003423F0030310B5C0F80034D0F8FE
:10245000004401F003032343012900F58062C0F822
:10246000003404D14BF680335360002010BD0229A4
:10247000FBD141F27073F7E737B500250195D0F82D
:1024800040340193019B23F02E030193019B43F4FD
:1024900080730446C0F840346420FEF7D9F8019BED
:1024A00023F48073C4F840340A20FEF7D1F828469C
:1024B00003B030BD82B000230193D0F840340193C3
:1024C000019B23F02E030193019BDA0406D401291A
:1024D00002BF019B43F48053C0F84034019BDB04EE
:1024E00005D521B9019B23F48053C0F84034002066
:1024F00002B0704784B038B5044605A880E80E00E5
:102500000023C4F8003EA36B43F40013A363A36B42
:1025100023F40023A363A36B23F48023A363E36B5F
:10252000DA053FD5079B032BD4F800343CD143F0A8
:102530000403C4F8003410212046FFF735FF20467D
:10254000FFF744FF0023069904F5A0624FF0FF3027
:102550001D468B422BD101212046FFF7ABFFC8203F
:10256000FEF776F80023A3614FF0FF336361E36B5E
:10257000DB0521D54FF40073636203F18073A3621E
:10258000114BC4F80031089B1BB9A36943F0100339
:10259000A361A2690D4B1343A361BDE8384000203D
:1025A00004B07047D4F8003423F00403C1E790600E
:1025B0000133D5602032CCE78023636203F5C0038A
:1025C000A362034BDDE700BF0003E000080020A387
:1025D000E000400082B000230193D0F84034019322
:1025E0000198C0F3414002B0704700F580608068F8
:1025F00080B270472DE9F04100EB411707F5A06468
:102600009DF81C6005464FF0FF30A0604FFA82F83D
:1026100005F5806C01F00F0E032E6CD8DFE806F094
:102620000261024C40F29D41B8F1000FE16003DA13
:10263000E16841F4807105E0E96BC90542D5E168C4
:1026400041F06001E1600020DCF81840012101FA4E
:102650000EF12143CCF81810A969B8F1000F41F030
:102660000071A961B4BF4FF400440024BDF82050AC
:102670009DF818109B0503F0FE53C5F30A05D2021E
:1026800002F4F0422B431343B20402F44022022925
:1026900043EA02030CBF4FF40031002123430B43F4
:1026A000032EC7F8003528D1D7F8003543F0005382
:1026B000C7F80035BDE8F08140F29D61B8F1000F28
:1026C000E160B5DBDCF81800012101FA0EF10143ED
:1026D000CCF81810A969002041F00071A9610446E6
:1026E000C4E740F22521B8F1000FE160EADAE168C1
:1026F00041F4C071A6E70120A6E7BDE8F08100F52E
:102700008060406980B2704700EB411101F5A06222
:10271000D1F8003513F4802FD1F8003543F0804311
:10272000C1F800351ED1C36A13F47F0FD1F800350C
:1027300037D123F00043C1F80035D1F8003543F01C
:102740000043C1F80035D1F8003523F40043C1F847
:10275000003540F2E933013B02D011680029FADB71
:1027600000207047D0F8103413F47F0FD1F80035F3
:1027700017D123F00043C1F80035D1F8003543F0FC
:102780000043C1F80035D1F8003523F40043C1F807
:10279000003540F2E933013BE2D011680029FADB51
:1027A000DEE743F00043C1F80035D9E700EB411103
:1027B000064AC1F81025D1F8003523F0804343F0D4
:1027C0000043C1F800350020704700BF00000880BA
:1027D0002DE9F341C36BDB05164604464A7817D54D
:1027E0000D79ADB94EB94B79012B11D11146FFF7D7
:1027F000DDFF002002B0BDE8F081012E08D100EB22
:102800004213D3F80C0520F06000C3F80C054D719D
:102810000869002866D00B8901381844B0FBF3F032
:1028200080B2B0F5807F03D91B020B614FF480703A
:10283000CF7817B10B8943430B6191F80AE00B691C
:102840004FEA4E7EC3F312080EF0C04E4EEA080E59
:10285000DFF8DC8004EB421508EAC0404EEA0000D5
:10286000C5F8100516B1C868C5F8140504F5806EE2
:10287000DEF80800D5F800C52CF0005CC5F800C5EE
:10288000C043D5F800C5400700F0005040EA0C00F6
:10289000C5F800052548D5F800C5C0F800C0D0F837
:1028A00000C02CF0804CC0F800C0D0F800C0DFB1F0
:1028B0004CF4004CC0F800C0D0F800C04CF0004C04
:1028C000C0F800C00068C5F80005002E91D1002FA7
:1028D0008FD1002B8DD0C879032813D8DFE800F002
:1028E000071A071A0120A3E72CF4004CE2E7E06A7C
:1028F000DD1CC5F38F0580B2854203D9A06940F085
:102900002000A061002000909BB2C9682046FFF71C
:102910006DFD6EE7DEF81000DD1CC5F38F0580B29B
:102920008542EFD9A06940F08060EAE7981D002059
:102930000000F81F836823F0010310B5102104463E
:102940008360FFF731FD2046FFF740FD04F5A063EB
:1029500004F5E0601A46116821F0802141F08041C1
:1029600042F8201B9042F6D10020196821F4004162
:1029700041F0404119600130B0F57A7F02D8196802
:102980000029F8DB20339A42EFD14FF0FF33C4F82F
:1029900014346361A36843F00103A360002010BDF9
:1029A0000020704738B5D0F87833DC6921780546C7
:1029B00039B100F017FE2178284600F02FFE0023E1
:1029C0002370217B41B1284600F00CFE217B284674
:1029D00000F024FE00232373617B41B1284600F000
:1029E00001FE617B284600F019FE00236373D5F8D1
:1029F0007833D86928B107F067FDD5F8783300221D
:102A0000DA61002038BDF0B5022285B001231146FD
:102A1000054600F0B2F9FF28064602D1022005B0B3
:102A2000F0BD0146284600F09FF95020D5F8787394
:102A300007F042FD1A2303FB0656F86196F84A3365
:102A40001A0642BF4370B6F84C33438104464178BE
:102A5000284600F0CCFD01462070608902900320DA
:102A6000019095F81D0395F81C3362780090284674
:102A700000F0A9FD00222178284607F0B4FC0023CD
:102A80001A460A21284600F078F9FF28C6D01A23F2
:102A900003FB005103FB005091F84A2390F8523396
:102AA000B1F84C1312F0800F0DBFA273E273618373
:102AB000218313F0800F08BFA373B0F85423A17BC8
:102AC00018BFE373284614BF6283228300F08FFD92
:102AD000E17B6073284600F08AFD2073208B029012
:102AE000022695F81D0395F81C33A27B617B0196A5
:102AF0000090284600F067FD608B029095F81D035A
:102B000095F81C33E27B217B019600900026284635
:102B100000F059FD3246617B84F84C60284607F08E
:102B200062FC3246217B284607F05DFC304676E7A2
:102B300038B5D0F87833D969A123037421234374BD
:102B40000722002343828382C2824031044600F080
:102B5000C9FA054620B9D4F8C8330221204698475F
:102B6000284638BD704770477047D0F8783373B542
:102B7000DC6994F84C300546042B3DD8DFE803F0BF
:102B800003061742A600002002B070BD2123A16CED
:102B90000374202343740722002343828382C2826A
:102BA00000F0A0FA50BB022384F84C3024E0A123AB
:102BB0000374212343740722002343828382C28249
:102BC00004F1400100F08EFAC0B9626CA36C84F885
:102BD0004C0002F0FF115A6802F0FF1291420BD133
:102BE00094F845105A79914206D1226C1B689A429A
:102BF00002D12846FFF7B8FF0120C5E70128FBD026
:102C00000423D1E794F84D10012921D002292ED0B8
:102C1000D5F87833DE6996F84E30032B45D0042B77
:102C2000EAD1317B284607F0CDFB0128E4D1317B86
:102C3000284607F083FBB36A984240D0728B9042DB
:102C40003DD91B1AB362336A18443062032333E060
:102C5000606A228B637B0091904298BF82B2E169E7
:102C6000284600F089FC022384F84D30D0E7617BD0
:102C700007F0A8FB012815D1636A228B934283BF1A
:102C80009B1A6362E36900238ABF9B186362E36156
:102C9000636A0BB10123E7E784F84D302846FFF75C
:102CA00061FFB5E70228B3D1F4E7337B728B316A59
:102CB000284600F078FC042386F84E309CE7002379
:102CC00086F84E302846FFF74EFF95E7002100F0CA
:102CD0000DFC002890D184F84C008DE700F560735E
:102CE00000F56F72002143F8041B9342FBD100F5FD
:102CF0008E7200F54771002302F8013B9142FBD12F
:102D000001224021037043708270C0F8BC33027608
:102D10008171437680F81C3380F81D2300207047B2
:102D200038B50D46044680B1002380F8C023C0F8B2
:102D30007833C0F87C33FFF7D1FF0DB1C4F8C85326
:102D4000204607F09DFA002038BD022038BD49B169
:102D5000D0F87C3333B90122C0F87C23C0F8741357
:102D6000184670470220704790F838338B4286BF70
:102D700080F8201300200220704770B5002490F8DE
:102D800043638E42E5B201D0FF290BD190F8446332
:102D9000964201D0FF2A05D190F845639E4207D0A4
:102DA000FF2B05D00134022C00F11A00E7D1FF25DA
:102DB000284670BD10B5044607F088FA0121204668
:102DC00007F004FB002010BD30B587B002238DF85A
:102DD000173090F81F33044633B9027822B10278D5
:102DE000032A1CBF0322027022780B2A18D8DFE8BE
:102DF00012F00C001A001F00210117004F000701FC
:102E0000C600D000DA00E700180194F81E333BB189
:102E10000123C820237007F0F5FA204607F080FA56
:102E2000002007B030BD012BFAD102232370F7E751
:102E3000642007F0E7FA204607F064FA05232370C0
:102E400084F81D030021204600F0D1FB8021607131
:102E5000204600F0CCFBA27994F81C332071014687
:102E60000292002594F81D230092019580222046AD
:102E700000F0A9FBA279029294F81D23009294F825
:102E80001C33617901952A46204600F09CFBC7E778
:102E90006378072BC4D8DFE803F004151E303841EF
:102EA0004F5D0821204600F0FAF905460028B7D109
:102EB000012394F829236370217994F81C33A271BB
:102EC0000292CFE71221204600F0E9F90028A7D1AD
:102ED00002236370A4E70121204600F0DDFA0546D5
:102EE00000289DD1022007F08DFA03220123627091
:102EF00084F81C332179A279E2E70921204600F009
:102F000016FA00288CD10423E3E7B4F836132046E0
:102F100000F00DFA002883D10523DAE794F8301386
:102F200041B1FF2304F58E72204600F08EFA00288E
:102F30007FF476AF0623CCE794F8311341B1FF2339
:102F400004F58E72204600F080FA00287FF468AF06
:102F50000723BEE794F8321341B1FF2304F58E72C4
:102F6000204600F072FA00287FF45AAF002384F85C
:102F7000203394F83333012B09D0072356E7D4F8D4
:102F8000C833002B3FF44CAF01212046984708235B
:102F90004CE794F83913204600F08CFA00287FF4AF
:102FA0003FAF092342E794F83B339B0606D5012146
:102FB000204600F08DFA00287FF432AF0A2335E76F
:102FC000D4F87C33002B3FF42BAF0023C4F87833C4
:102FD000D4F8743394F843231979914208BFC4F8A4
:102FE0007833D4F87833D3B19B6820469847B0B98A
:102FF000062323700321D4F8C833204698470FE7EF
:10300000D4F878335BB11B69204698478DF81700D8
:103010009DF81730002B7FF403AF0B2306E70D2339
:1030200004E7D4F87833002B3FF4FAAE5B6920460E
:103030009847F5E62046FFF751FED4F87833002B89
:103040003FF4EEAEDB68204698470023C4F878339F
:10305000E6E6C0F8BC137047D0F8BC230132C0F8D4
:10306000BC2302780B2A04D1D0F878330BB19B69CA
:1030700018477047012380F81F337047002380F8FA
:103080001F337047027808B54AB9D0F8C833012217
:1030900080F81E230BB104219847002008BD90F84A
:1030A0001F23012A04BF02220270F6E710B504466E
:1030B00007F01AF92179204600F0B0FA617920462C
:1030C00000F0ACFA002384F81E33D4F8C83313B1EF
:1030D000052120469847204607F0F8F8032323707F
:1030E000002010BD13B504468078012803D00228C3
:1030F00008D0012004E00223A160A2812076A37001
:1031000002B010BD237E013B01210A2BF1D8DFE87C
:1031100003F0060F2B36404C646F808C950062796B
:1031200004F11001204600F0EFF902232376E0E7D6
:103130006179204607F046F901280FD1E28A94F917
:1031400010302AB1002B01DA0323EFE70523EDE766
:10315000002B01DA0923E9E70723E7E7042801D078
:103160000228C6D10B23E1E7D4F8BC33E381A2895E
:103170002379A168204600F0EFF90423D6E72179EE
:10318000204607F01FF90128E4D0052815D00428AF
:10319000E7E763790091A289A168204600F0C5F9AC
:1031A000D4F8BC33E3810623C0E76179204607F0F9
:1031B00009F90128D0D0052805D10123A3700023E7
:1031C000237603209CE70228C0D0042891D10B234A
:1031D00023760123A370022092E70022237911466F
:1031E000204600F0B9F9D4F8BC33E38108239DE709
:1031F0002179204607F0E6F8012804D101230020B8
:10320000A37020767CE70428ACD005287FF471AF4A
:10321000D3E70022637900912046114600F085F93A
:10322000D4F8BC33E3810A2380E76179204607F0B4
:10323000C9F80128E2D00228A9D18BE7637E0133C7
:10324000DBB2022B637606D8204607F04DF8012347
:103250002376A3704DE7D4F8C8330621204698475B
:1032600000236376B5E730B48478BDF80850012CAC
:1032700010D161F07F04047402F47F44B4F5407F00
:1032800042824FF006010CBF40F209420022417415
:103290008282C5822A46194630BCFFF723BF37B564
:1032A00000F58E730D4600914FF4807200210446A4
:1032B000FFF7D9FFC8BB94F81C3184F8223394F887
:1032C0001D3184F82333B4F81E31A4F8243394F864
:1032D000203184F8263394F8213184F8273394F888
:1032E000223184F82833082D94F8233184F82933C7
:1032F0001BD9B4F82431A4F82A33B4F82631A4F841
:103300002C33B4F82831A4F82E3394F82A3184F8F9
:10331000303394F82B3184F8313394F82C3184F81D
:10332000323394F82D3184F8333303B030BD2DE9B6
:10333000F74300F11C050E4600912B464FF4007236
:1033400000210446FFF78FFF48BB237F84F8343306
:10335000637F84F8353394F8203084F8383394F858
:10336000213084F8393394F8223084F83A3394F8D1
:103370002330B4F81EE084F83B33092E94F824304F
:10338000A4F836E384F83C3309D927462B46064691
:1033900009224FF01A0C022E01D0964502D803B034
:1033A000BDE8F08319780B440A445978042992B295
:1033B000F1D1197887F83E13597887F83F13997837
:1033C00087F84013D97887F84113197987F84213A1
:1033D000597987F84313997987F84413D97987F88D
:1033E0004513197A87F846130CFB06F8002197F865
:1033F00042538D4202D801361A37CCE79645FAD9A6
:103400001D782B442A445D78052D92B2EFD14D1CD6
:1034100008EBC501214493F8009081F8409393F89C
:10342000019081F8419393F8029081F8429393F8C8
:10343000039081F84393B3F80490A1F8449393F870
:10344000069081F84693E9B2D1E7F7B500F58E759D
:1034500014461F46009341F440722B460021064655
:10346000FFF701FF78B996F81D31032B0BD196F8C1
:103470001C31023BBB4228BF3B469BB202469342F3
:1034800003D80023237003B0F0BDA9180232897855
:1034900004F8011B92B2F2E78378012B06D10023D6
:1034A00005220374427441828382C3820022114642
:1034B000FFF718BE8378012B06D10023092203747D
:1034C000427441828382C38200221146FFF70ABE02
:1034D0008378012B06D100230322037442744182B6
:1034E0008382C38200221146FFF7FCBD8378012B43
:1034F00006D1022243740023027443828182C38274
:1035000000221146FFF7EEBD30B585B00024154608
:1035100008230293019103940094234622462946EE
:1035200006F036FF204605B030BD30B590F81D538B
:1035300085B0002D1C469DF82030029218BF002354
:10354000039301230093002301911A46214606F0BC
:103550001FFF002005B030BD30B585B000241D46EA
:10356000029201220191039400922346294606F01B
:103570000FFF204605B030BD30B590F81D5385B023
:10358000002D1C469DF82030029218BF00230393A3
:1035900001230191009300220223214606F0F8FE48
:1035A000002005B030BD30B585B01D460024029224
:1035B00001220191039400920223294606F0E8FEBD
:1035C000204605B030BD1FB5BDF8204002949DF8DF
:1035D0001C4001949DF81840009406F0B3FE0020B2
:1035E00004B010BD08B506F0C5FE002008BD30B51A
:1035F000002300F5607454F8045B2D04DAB207D49C
:10360000E03341F4004140F8231092B2D0B230BD13
:1036100001330B2BEFD14FF6FF72F7E70A299FBF5B
:1036200000EB8100D0F88033C3F30E03C0F8803381
:103630000020704738B50D460023044603740D4939
:103640002846FCF7C5FD40B90B4B18680B4B2360AF
:1036500000236060A060E36038BD09492846FCF79C
:10366000B7FD18B9074B1868074BF0E7074B186808
:10367000074BECE790B800089418002014130020C2
:103680009DB8000810130020280000209C1B00207B
:103690009818002010B5037C5B07044602D500682B
:1036A00006F012FF00232360636010BD10B50446CE
:1036B00058B151B1FFF7BEFF18B101236374002068
:1036C00010BD60746FF0050010BD6FF00F0010BDED
:1036D000437C0BB1FFF7DEBF704742688068101A69
:1036E000704700002DE9F04105460F469846164602
:1036F00032B9184B184919484FF4047206F0BAFF52
:10370000308828B36C8EB5F860306400A4B29C4257
:1037100028BF1C46844228BF0446434622463946F9
:10372000284604F033FF431C0DD1B5F8603033B1A7
:10373000B5F86230082B02D86408012CEDD80023BC
:103740003380BDE8F0810028F9D13480BDE8F081F4
:10375000BDE8F08147BB00087EBB00088DBB0008B8
:1037600010B50446406918B1FFF7B2FF002363614A
:10377000206A18B102F0A6F90023236210BD0000F0
:1037800038B50D460A4929600446FFF78FFF68B136
:10379000084929602046FFF789FF38B106492960AA
:1037A0002046FFF783FF08B100242C60204638BD77
:1037B000A7B90008B1B90008BAB9000870B50C463D
:1037C000154642BB39B30121204602F0D3FD5020FB
:1037D00001F016FF064608B35022294606F096FE71
:1037E0000523A6F84E3031462046F46102F0DAFD9A
:1037F0000C49204602F0DAFD0B49204602F004FE97
:103800000A492046042202F01DFE0949204602F022
:10381000E5FD284670BD6FF00505FAE74FF0FF356E
:10382000F7E700BF853A0008AD3E0008493A0008B6
:10383000313A000838B504460D46002102F0B2FDC9
:103840000021204602F0B2FD0021204602F0DCFDFE
:1038500000221146204602F0F5FD0021204602F02C
:10386000BDFD2DB12846FFF77BFF284601F0A8FDDE
:10387000204603F0F7F8054620B10422024920460D
:1038800002F0E0FD284638BD493A000838B5054643
:1038900048690C4628B921462846FFF7CBFF00208F
:1038A00038BDFFF71AFF0028F5DD044B0449054831
:1038B00040F2834206F0DEFE012038BD47BB00081F
:1038C00070B900088DBB00082DE9F74F05460C467E
:1038D00021B90026304603B0BDE8F08FB1F84E3074
:1038E000042B1DD802AFB0F8606027F8026D4FF0CE
:1038F0000008B4F84EA02EB1BAF1040F02D8BDF8FA
:103900000630FBB9BAF1040F05D9A3691BB92146EA
:103910002846FFF7BBFFB4F84E30042B40F28680F8
:10392000636A002B51D0626A4FF6FE714FF6FF7347
:103930008A4298BF1346A169ADF8063000294BD1E1
:10394000012353E004EB8A03D3F82CB05846FCF76C
:1039500049FCB4F84C101FFA80F94846401AB042AE
:10396000A8BF3046BAF1030FADF8060059442AD07B
:10397000BAF1040F4FF0000301D043F002033A46BE
:103980002846FFF7AFFE08B1ADF80680BDF8062067
:10399000B4F84C3013449BB2B61A9945A4F84C3095
:1039A000B6B2A6D1B4F84E300133A4F84E30B4F814
:1039B0004E30042B04D804EB8302D26A002AF3D0E1
:1039C000A4F84C8095E70123D7E721462846FFF766
:1039D0005DFF0028A7D17CE760690028B0D043686C
:1039E0009A1A03681344CB1A18BF01230DF106027B
:1039F0002846FFF777FEB8B9BDF80610A269636ADA
:103A00000A445B1AA26163620126676A002F7FF491
:103A100061AF6069FFF761FE00283FF75BAF2146A9
:103A20002846FFF707FF54E70026EEE7022651E796
:103A300008B50B46014628B1002280F82820184618
:103A4000FFF742FF002008BD10B50C46014620B923
:103A50002046FFF7EFFE002010BD90F8283001331C
:103A6000DBB2042B80F82830F2D04369002BF2D06F
:103A70002046FFF729FF0028EDD0204605F00CF97D
:103A8000E9E700002DE9F04F87B0044601911546A3
:103A90009A464BB952B188B90198298902F016FCAF
:103AA000284602F00FF801E0002AF5D121460198DE
:103AB000FFF7C0FE002007B0BDE8F08F1189019824
:103AC00002F004FC6369002B40F0C681A369002B5F
:103AD00040F0E181206A002840F08F80256228466E
:103AE00002F0AAF9206A0368002B00F08A80B0F87F
:103AF0000890AD49DFF8B08240F2FF33994528BF06
:103B000099464A46002302F06FFAB9F1060F40F2D7
:103B10008F814A46A549404600F019FA002800F076
:103B200087810422A249404606F0FEFD029000284B
:103B30006CD1A9F104039BB208F104061A469D4911
:103B40000393304600F003FA08F1030B0746039B8A
:103B500050B91A469549304600F0F9F90746002851
:103B600000F0668101230293BB4580F061814A46E3
:103B70009149404600F0EBF9002800F05981BF1B45
:103B8000BFB2002388F803303046F3550596FCF7A2
:103B900029FB002800F0A580471EF35D2F2B40F085
:103BA000A080864B9E429B4602D1012840F099801E
:103BB0003F2F28BF3F273FB13A4631467F4806F0A6
:103BC0009AFC00230BF80730DFF828924FF000082A
:103BD00017B3D7F13F020ED059F838600392304640
:103BE000FCF700FB039A824228BF024631460BEBEA
:103BF000070006F080FC714A10E0294602F030F917
:103C00006DE7D5F80480B5F80A907EE7002388F8C0
:103C100004306FF00F0A4CE059F838200392114637
:103C20002046FFF743FD2646039A002853D105920C
:103C3000059F6661002E71D03368A3617368002B05
:103C400006DA5F4B5F49604840F6CF0206F012FD8E
:103C5000737C002B60D03368002B5DD1636200233E
:103C600084F82830029B83B163691B7CDA070CD58A
:103C7000626A5149A06900F06AF930B1A369043061
:103C8000C21A636AA0619B1A6362636913B11B7CE9
:103C9000DB070ED44D4B236300236363A363002F24
:103CA00041D14B4BE3624B4BE363A4F84E70A4F855
:103CB0004C70206A18B101F005FF002323622846EA
:103CC00001F000FFBAF1000F40F0C18021460198D9
:103CD000FFF7FAFDEEE608F10108B8F1050F7FF4F1
:103CE00077AF3F21059806F011FD08B1002303705E
:103CF000059920462646FFF7D9FC002898D005A94B
:103D00002046FFF73DFD0646002891D105A9204633
:103D1000FFF736FD06468BE773689FE7A66166628C
:103D200084F82860B1E72C49384606F00FFD20B32F
:103D3000274BE3623F21384606F0E8FC804608B195
:103D40000023037038462E2106F0E0FC002720BB3C
:103D500067B1DFF8A4900646394659F8360000F0FE
:103D600014F900287CD00136142EF5D1B8F1000FDB
:103D700044D1002F5AD1194B4AE01949384606F070
:103D8000E5FC08B1174BD4E71749384606F0DEFCCE
:103D900008B1164BCDE7164BCBE7471C2E21384612
:103DA00006F0B4FCD3E700BFDC1D0020B4BC000863
:103DB000C5B9000862D60008B2BC00089C1D0020EE
:103DC00047BB0008CAB900088DBB0008E8B9000865
:103DD00028BA000846BA000896BA0008EEBA0008E9
:103DE0009ABA00089EBA0008B9BA0008BDBA00081D
:103DF000DCBA0008A8B80008D0B8000814263F2391
:103E0000142E88F80030B4D0244800EBC60673683E
:103E1000E363636923B11A7C02F00302012A23D110
:103E20000023A4F84E30A4F84C3042E71C4BEFE7D7
:103E3000206A01F0F9FF236A1B89B3F5806FBFF494
:103E4000E8AE05283FF6E5AE6FF0040A37E71AF151
:103E5000100F7FF42FAE29E6284601F033FE29E645
:103E6000B8F1000FCBD1CFE704F140065A680C211E
:103E7000304600F0A1F83046FCF7B4F90928CFD855
:103E80004030084B221819889B7821529370064BBA
:103E9000A6636363C4E76FF0070A0AE7D0B80008B7
:103EA00019BB000888B8000836BB000810B50446E6
:103EB00030B1FFF755FC2046BDE8104001F080BA54
:103EC00010BD000010B52E2002F0B4FF044630B93A
:103ED000154B164916484FF4216206F0CBFB012121
:103EE000204602F047FA50221249204602F01CF9FF
:103EF00030B10D4B10490E4840F6152206F0BAFBC2
:103F00002046FF2102F0B2F9044630B9064B0B49B6
:103F1000074840F6172206F0ADFB20460849BDE8E9
:103F2000104002F089BA00BF47BB0008B5BB0008CB
:103F30008DBB000878C10008D0BB0008ECBB0008AE
:103F4000BD37000840BA80B2704700BA7047F8B574
:103F5000044608460F461546FCF744F9064690B15C
:103F60002544207880B1A3199D4201D20020F8BDDC
:103F70003B78834205D132463946204606F0D4FBD1
:103F800008B10134EDE72046F8BD30B510F8013B2B
:103F900011F8012B934209D043F02004A4F16105EC
:103FA000192D07D842F02002944203D1002BEDD105
:103FB000184630BD012030BDF0B5134E01464FF01C
:103FC0000A0E6FF0090792FBFEF407FB0465154427
:103FD0000B4695F8235003F8015B54B9002ABEBF85
:103FE0002D221A708B1C00215A1E1970824203D890
:103FF000F0BD19462246E6E71378017802F8011968
:1040000000F8013BF2E700BF4EBE000808B501F022
:10401000B7F901F0C9FB01F014FC05F0EDF902F06D
:1040200081F8BDE8084005F08DB9000070B518268C
:10403000074C46430546A05918B101F043FD002343
:10404000A351182303FB05440023237570BD00BF53
:10405000DC2100202DE9F3470B9D894692469846C6
:10406000074630B92C4B2D492D484FF48B6206F092
:1040700001FB00221C21022001F086FD06460028DB
:1040800047D043891B2B06D8234B2649244840F2AE
:10409000644206F0EFFABDF834007468FFF752FF8F
:1040A000E08097F82430062B06D01B4B1E491C4895
:1040B00040F26B4206F0DEFAD8F80030A360B8F8A0
:1040C0000430A3812B68C4F81230AB88E3820A9BCA
:1040D0001B68C4F80E300C9B1B68A361012363703E
:1040E0000823A3700623237104230025637140F67F
:1040F00006032570E5704A4600933146534638461C
:1041000005F076FA304601F0DDFC284602B0BDE845
:10411000F0874FF0FF30F9E78BBF0008C2BF0008FF
:104120008DBB0008D0BF000801C000082DE9F74F83
:104130003E4B01910A2205460020944614468146D2
:104140008046834696461E46BEF10A0F1F7D12D159
:104150009FB94FFA80FE01300A2803F11803F3D10A
:10416000019B990704D4BEF10A0F1CD1DB0735D49B
:104170004FF0FF3009E0002FEDD0002D4AD0296824
:104180008A4659688A4545D140B203B0BDE8F08FF0
:10419000C245E0D34FFA80FCD046DCE7CA4524BFD5
:1041A00044B2D146D7E75FFA8EF7182303FB0763C3
:1041B0001B7D33B11E4B1F491F4840F2871206F08A
:1041C00059FA25B1182303FB07632A685A6018239C
:1041D00003FB07660023738278B2D6E70A2C0FD060
:1041E0001823E7B25C43335933B1114B13491248DA
:1041F00040F26F1206F03EFA3846FFF717FFD4E799
:10420000BCF10A0F02D05FFA8CF7F5E70A2AAFD0AB
:10421000D7B2F1E7012FB3F812A0BFD11F68002F6A
:10422000B6D0DA4597D342B2D34694E7DC210020DA
:104230008BBF0008ADBE00088DBB000896BE00080D
:1042400070B5084D064600242B7D2BB1AB68B342F8
:1042500002D12046FFF7EAFE01340A2C05F11805C9
:10426000F2D170BDDC2100202DE9F047804686B0F8
:104270000C4649B9464B474947484FF4227206F06D
:10428000F9F906B0BDE8F08745682B88B3F5807F63
:1042900008D12B79062B05D16B79042B02D16B88C1
:1042A000082B03D0404601F00DFCEAE74E68D5F834
:1042B0000E300593AB6916B19B1B5E425E4194F8CC
:1042C0002430002E14BF4FF001094FF00209062BD5
:1042D00005F1080706D02E4B30492F4840F2AB12AB
:1042E00006F0C8F9059800283CD0214600F095FC5E
:1042F0008246B8BB059B03F0F003E02B32D0494661
:1043000005A8FFF713FF00282CDB254B182202FB22
:1043100000F103EB010E4FF0020C8EF814C04FF0C9
:104320000C0CCEF8084012FB00C23868985003EB22
:10433000020CBA88ACF8042053F80190AEF812A031
:10434000B9F1000F0ED043F801A04FF400630093C1
:1043500004F125023B464946204605F049F9484606
:1043600001F0B0FBEB88B3F5807F9BD1002E99D094
:104370000222039205AA04F125030292221D009253
:1043800001973A4619462046FFF764FE8AE700BFC8
:104390008BBF0008C2BF00088DBB0008F5BE000837
:1043A000DC2100201FB5024600F125030291012403
:1043B00005490191043200920394044A1946FFF71B
:1043C00049FE04B010BD00BFA0D5000834D50008D8
:1043D000F8B5134C002502260427227C6AB1E38934
:1043E00001339BB2B3F5967FE38103D2012A0AD150
:1043F000042B0CD92846FFF719FE01350A2D04F1CC
:104400001804EAD1F8BD032A06D12774F5E721463E
:104410006068FFF7C7FFF0E7042AEED12674ECE7E7
:10442000E02100202DE9F043274D1446182202FB1D
:10443000045285B0127D012A0646884606D8234BD1
:104440002349244840F2ED2206F014F9182101FB1B
:10445000045906F1250799F81430022B0DD1B9F84B
:104460001230B3F58E7F17D9494604313046FFF735
:1044700099FF10B9032389F81430182303FB045360
:104480004FF4006200920C333A464146304605F044
:10449000AFF805B0BDE8F083B3F5877FEDD304EB4B
:1044A0004403DB0003F10C0204332B4402930A4B58
:1044B00001930121331D039100932A443B46394661
:1044C0003046FFF7C7FDD4E7DC2100208BBF000892
:1044D00019BF00088DBB0008A0D500082DE9F347DF
:1044E000894680460146D9F80000164600F095FB43
:1044F000044600285ED1D9F8003003F0F002E02A2B
:1045000058D0002B56D001214846FFF70FFE051E5C
:1045100053DB404F182303FB05731A7D1AB901249E
:104520001C75C3F80880182303FB05731B7D33B982
:10453000394B3A493A4840F2C93206F09BF80CB977
:10454000002E3CD149464046FFF72CFF002E38D1C3
:1045500002B0BDE8F087FBD1DFF8BC80DFF8C8907F
:10456000DFF8BCA034469CB9304601F065FC002E53
:104570004CD0B046182303FB05F21C46B85808B1CE
:1045800001F0A0FA04FB05F3002047F80380DFE701
:10459000628923899A4208D1236833B143464FF494
:1045A0007B724946504606F065F8237B012B1ED1ED
:1045B0002468D8E76FF00F00CAE72846C8E74FF035
:1045C000FF30182303FB0572127D012AC3D9154A57
:1045D00015700C2213FB05234FF4006200923B443C
:1045E00008F125023146404605F002F8B0E7002206
:1045F0002189022001F0C8FA804638B1314601F025
:1046000069FC0028B6D0404601F05CFA4FF0FF305C
:104610009EE700BFDC2100208BBF000849BF0008D7
:104620008DBB0008CC22002071BF0008F0B50E46FB
:1046300085B01546044630B93E4B3F493F4840F2ED
:104640001B3206F017F836B93A4B3D493B484FF458
:10465000477206F00FF835B9364B3A49374840F201
:104660001D3206F007F82146286800F0D6FA002827
:104670005BD12B6803F0F002E02A1DD101238DF8F5
:1046800008305E238DF80A306B788DF8090003F04E
:104690007F038DF80B30AB788DF80C30EB788DF80C
:1046A0000D3002AB4FF400620092314604F1250256
:1046B000204604F09DFF1FE06268A1685A400A424C
:1046C00008D09BB24FF6A962934203D0E36873B35C
:1046D00004F10C051C4B1D491A78182000FB021030
:1046E000017D0129194609D92F6843689F4205D1E8
:1046F00031462046FFF796FE05B0F0BD134B002271
:10470000187D012806D92F685868874202D1D2B295
:104710000A70EDE701320A2A03F11803F0D132469C
:1047200029462046FFF7DAFEE6E7094BBAE76FF0C5
:104730000300E1E78BBF0008C2BF00088DBB000883
:104740006FC90008D6BE0008CC220020DC21002062
:1047500034D50008F0B5044687B00F46164624212C
:104760000022012001F010FA0546A0B34389232B53
:1047700006D81A4B1A491B484FF4B17205F07AFF5C
:1047800022686C68002323716371A371E371277041
:104790006670134604F1080102F11C0053F8046B23
:1047A00041F8046B8342F9D106AED36846F8043D64
:1047B000304600F0BBF858B100210123A170E17030
:1047C000324602908DE80A002846FF2300F014FAD2
:1047D000284601F077F907B0F0BD00BFA9C0000876
:1047E000DEC000088DBB00082DE9F043444BD3F830
:1047F000089099F8005005F00F05AD00132D85B015
:10480000044688461F462AD94289032A27D9426886
:104810001278082A23D1586900F0F002E02A1ED04D
:10482000196800F0FAF90646C8B92389072B16D98A
:1048300005F10E01204601F03FF900284FD02189F3
:104840002944324689B2022001F09EF9064630B171
:10485000428905F108039A4207D201F033F9204654
:1048600005B0BDE8F04301F02DB949462A4640683D
:1048700005F041FE6942304601F01EF938B1214B86
:1048800021492248AF2205F0F5FE3046E5E72146F2
:10489000304601F01FFB0028F7D1204601F012F945
:1048A000344629462046666801F006F9024600288B
:1048B000D5D161687B69CB603B690B61FF233070A8
:1048C000B070F0700B728872C87201210191009073
:1048D000CDF808800E49204600F08EF9BFE7C5F5F7
:1048E0007F41F23109B2204601F0E6F80028D8D025
:1048F000044B08490548C02205F0BCFEAFE700BFE5
:1049000068230020A9C0000842C000088DBB000831
:104910007C23002077C000080A4604300321FFF7FB
:1049200019BF0A4604300B21FFF714BF30B5134BF3
:104930001B686BB9124A1268EAB192F82B1001F0A9
:104940000501052917D15168002918BF134612E047
:1049500093F82B4004F00502052AE9D15A68002A91
:10496000E6D001689D684A402A4204D0A207DFD4FD
:10497000DA689142DCD1184630BD00BF8058002073
:10498000845800202DE9F84F476897F800904FEAC7
:104990001913042B0546884605D0284601F092F8E5
:1049A0000020BDE8F88F7888FFF7CCFA2B8909F052
:1049B0000F0983424FEA8909044603D90146284674
:1049C00001F0C2F96B894B45E7D32B89A342E4D3AD
:1049D000B9F1130FE1D93B69494C636103F0F0036E
:1049E000FA682261E02B39D198F82B30DA0703D529
:1049F000D8F80430002B58D100264146206900F039
:104A00000CF90028C9D1236903F0F003E02BC4D0CE
:104A1000002EC2D0FB8823F0C00333B1284600F03B
:104A20002BFA05460028BBD04768A76084E8400100
:104A30003B7803F00F039B00C9F100012846A381D6
:104A400001F03AF87B7A062B3DD0112B2FD0012BA9
:104A50003ED141462846FFF7C7FE2CE0DFF8A4B060
:104A600046464FF0010A96F82B30DB0704D4BAF122
:104A7000000F0DD1366810E07368002BF7D0606925
:104A80008342BAD0314600F0C8F80028EFD0B4E72E
:104A9000237D7F2BB0D0DBF80060464508BF366829
:104AA0004FF0000A002EDED1A6E74646A5E74146B4
:104AB000284604F0A3FC002323606360A360A38165
:104AC000236163616CE74146284602F07BFFF2E711
:104AD0003146606900F0A1F868B9636903F0F0033A
:104AE000E02B08D04946284600F0E9FF6F6002211C
:104AF0002846FFF711FF284600F0E4FFDBE700BF80
:104B000068230020805800202DE9F3471F46C38901
:104B1000DDF83080012B05468A46164606D0304B1C
:104B20003049314840F2333205F0A4FD002E47D021
:104B30001421284600F0C0FF00284ED16B896C6814
:104B4000132B06D8264B2949274840F2613205F03D
:104B500091FD9DF82C3027726372336823614523E1
:104B600023709DF8283063702889DFF88890FFF75C
:104B7000E9F900276080A771E771B9F80000FFF735
:104B8000E1F9B9F80030A0800133A9F80030BAF19A
:104B9000000F12D1164B1B68E360A772E772B8F8DA
:104BA00022309BB12A899A4210D932464146284682
:104BB00000F00CFB02B0BDE8F087DAF80030EBE75C
:104BC0006B6802AE1B6946F8043DE8E7D8F814307C
:104BD0003246294640469847ECE76FF00100E9E786
:104BE0000AC100083EC100088DBB00084AC1000888
:104BF00078C10008CE220020F0B4069C9DF8105029
:104C00009DF814601AB109B10F6807B9211D069407
:104C100005960495F0BCFFF777BF431E033311D808
:104C200091F82B3013F002030ED04A6890420BD05B
:104C30008B6842401A4207D1DB4383430CBF0120FB
:104C400000207047012070470020704738B50C4B9A
:104C50001A68824204460D4607D102681A6021464E
:104C60000420BDE8384000F0C9BD31B9054B064904
:104C7000064840F2451205F0FDFC23682B60EEE784
:104C8000D422002061C200089AC200088DBB00082F
:104C900081422DE9F84F05460F4605D12F4B30498B
:104CA0003048AB2205F0E6FC47B13B689D4205D099
:104CB0002A4B2D492B48AD2205F0DCFC6E68736849
:104CC0009A8892BB1A686A6005F11C0105F1080216
:104CD00052F8040B43F8040B8A42F9D10121304603
:104CE000FFF71FFE304601F09FF80446304600F003
:104CF000E9FE6E68DFF86480DFF87890DFF864A082
:104D0000AEB92846194D3946FFF7A0FF2B88A342BC
:104D100005D2124B16491348D22205F0ABFC2B8862
:104D20001B1B2B802046BDE8F88F0024E1E7736849
:104D30003046D3F800B001F077F80444B4F5803F72
:104D400005DB4346CC224946504605F093FC3046ED
:104D5000A4B200F0B7FE5E46D2E700BF61C2000811
:104D6000B3C200088DBB0008BFC20008D0220020DB
:104D7000EEC20008D1C200082DE9F041DFF86C80D6
:104D800006460F4600250024D8F800302146A646E6
:104D9000204653B910B1FFF77BFF0544BD4201DA4D
:104DA000012CF0DC2846BDE8F081D6F80CC05A6929
:104DB000624509D1D6F810C09A69624504D1B3F8AA
:104DC0000CC0B288944508D0013460B1C27F93F81A
:104DD0001FC094459CBF714618461A68002A18BF28
:104DE0009E461346D5E771461846F6E7D4220020C2
:104DF00010B5044630B9064B0649074840F2AE22CA
:104E000005F038FC21460520BDE8104000F0F6BC56
:104E100061C200082BC900088DBB000810B504460C
:104E200030B9084B084909484FF42E7205F022FCAE
:104E3000606908B100F046FE2046BDE81040FFF76B
:104E4000D7BF00BF61C2000809C300088DBB0008BE
:104E500038B5084B1868002400B938BDC37F056811
:104E600023B1013BC37704462846F5E72146FFF707
:104E70000FFFF9E7D42200202DE9F74F45682B7882
:104E800003F00F03052B074640F08C80E888B44CF4
:104E9000FFF758F8C0F30C004FEAC0096888FFF725
:104EA00051F82B7803F00F03A0EB830083B2384650
:104EB000019300F0B9FF238803440A2B824668DC83
:104EC000A84E3468002C72D1042000F07BFC04460C
:104ED00058B951462846FFF74FFF824562DC04204F
:104EE00000F070FC044600285CD0202200212046FF
:104EF00005F00CFB0323E3773368236034602B4613
:104F000004F1080205F1140153F8040B42F8040BF4
:104F10008B42F9D1B5F806B01BF0200B08D1019BEC
:104F20004B449BB299453DD84FF6EB72934239D82A
:104F30007D686888FFF706F895F8008008F00F088C
:104F4000A0EB8808E888FEF7FDFFC0F30C001FFA0D
:104F500088F8C0007E68D4F804E0B08008EB000355
:104F600000259BB235707570B570F570F380724690
:104F70004FF0010852BB002D40F09280BEF1000FAF
:104F80007DD0794B79497A484FF4DA7205F072FB9B
:104F900075E001462846FFF7EFFE18B12388534419
:104FA0000A2B8DDD384600F08DFD0025D4E0EB683E
:104FB00062699A4208D12B69A2699A4204D1A289F6
:104FC000AB889A4200F0DC8024687BE7D2F804C00A
:104FD000BCF80410884254D23260002D4DD0EA88CB
:104FE0009042C0F091808B4200F28E802F60904200
:104FF00040F0E480BBF1000F04D0A37F13F0010365
:1050000000F0DA80B8F1000F59D14FF00008544E8B
:1050100033889A44A6F800A0BBF1000F07D1019B8A
:105020009944A37FA4F81C9043F00103A377B8F13F
:10503000010FBAD1A38B1433A38363685D682F6813
:1050400004F108032A4604F11C0153F8040B42F84A
:10505000040B8B42F9D1A08BFEF774FF002368800C
:10506000AB71EB71AB72EB726568002F57D13D4BA2
:1050700019688C4265D1394665E08B4244D8676037
:10508000B8E741D0BCF8062082423DD825B1EA8875
:105090008A4218BF4FF00008DCF80020654669E737
:1050A000EB88834206D9304B3249314840F2AB128B
:1050B00005F0E0FA2F60EA88B3889A4298E76368BF
:1050C000002BA2D059688B88002B9ED133689BB9E6
:1050D000B14206D1244B284925484FF4EB7205F024
:1050E000C9FA3368002B92D01F4B244920484FF453
:1050F000EC7205F0BFFA8AE75A68F0889388984204
:1051000083D113681646E2E7384600F08DFE144A54
:105110001388181A1080384600F0D4FC42E7D7F8FC
:1051200004806FF01301384600F0C6FC394628466B
:1051300000F096FED8F8007097E70B689C4202D00A
:1051400019460029F9D12046FFF780FD284600F0D6
:105150006BFE3388181A3080284603B0BDE8F08F04
:10516000D0220020D422002061C20008FBC1000828
:105170008DBB0008DDC1000832C200083FC2000834
:10518000E888FEF7DFFEC0F30C0000287FF4C2AE13
:10519000E089FEF7D7FEC0F30C0000283FF4BAAE5A
:1051A0002B4604F1080205F1140153F8040B42F8F0
:1051B000040B8B42F9D1ADE6984628E7BBF1000F0E
:1051C0003FF423AF4FF0000817E700BF2DE9F04F81
:1051D000B1F822808BB00823A8F1140898FBF3F8EB
:1051E0001FFA88F30693436808921E78029306F02C
:1051F0000F06B600142E07468B460BD05A4B5B4960
:1052000040F2E1225A4805F035FA6FF005000BB084
:10521000BDE8F08F029BD888FEF794FEC0F30C0324
:1052200010F40054049304D04F4B524940F2E6224C
:10523000E8E73D891FFA88F8143D4FEAC803ADB28C
:1052400007930DB92846E2E7079BAB42A8BF2B4660
:105250009BB2002214210220059300F095FC8046A9
:1052600070B37B89132B06D83F4B4349404840F22B
:10527000093205F0FFF9029BD8F8042019461431D1
:1052800053F8040B42F8040B8B42F9D1D8F80430E0
:10529000DDF814900393B9F1000F37D07C89A41B7B
:1052A000A4B24C4528BF4C4614B93F680026F2E72B
:1052B000052000F087FA824628B9404600F002FC3B
:1052C0004FF0FF30A3E701947B6833440093022240
:1052D00003462146042000F0B7FB18B95046FFF7FB
:1052E00087FDEAE70990384600F0A6FDA9EB04091E
:1052F000224BCAF81470CAF81030099940461FFAB8
:1053000089F900F0ADFDB9F1000FCED1049BC3F3D4
:105310000C00BBF82230133B9D42A8BF40F4005064
:10532000FEF710FE039BD880059B03F1140080B2AA
:10533000FEF708FE039B039A588000239372D372F2
:105340004146DBF81430089A58469847404600F02A
:10535000B9FB059B069AED1A049B134426449BB2A5
:10536000B6B2ADB204936CE761C200087CC100081C
:105370008DBB0008A3C10008BDC100081D4E000878
:105380000B4B0C4A23F003030021136059804FF4A8
:10539000C862197108491A809818A3F84026A3F822
:1053A0004226064A0860012183F8441613607047BC
:1053B00083230020DC220020E0220020D8220020CD
:1053C0002DE9F0410446002800F08880830706D0CC
:1053D000434B444944484FF4D67205F04BF9434FD0
:1053E0003B689C4203D3424B1B689C4206D33C4B18
:1053F00040493D4840F2AF1205F03CF93B689C4201
:105400006CD33B4B1A689442984667D214F8043C1C
:10541000A4F1080533B9324B374933484FF4E072F1
:1054200005F028F9354E002304F8043C33689D420A
:105430003B6838BF35609D4206D2294B30492A4827
:1054400040F25D1205F016F9D8F800309D4206D3FF
:10545000234B2C4924484FF4AF7205F00BF914F894
:10546000043C33B11E4B28491F4840F25F1205F03F
:1054700001F934F8083CB3F5C86F06D9184B234935
:1054800019484FF4B17205F0F5F83B6834F8081C80
:105490005A18954210D0107970B9D8F8000082429D
:1054A0000AD0306882425A5A24F8082C5A5A08BF47
:1054B00035601A44E91A518034F8062C99188D4247
:1054C0000CD0087950B93068854208BF316034F893
:1054D000081C995234F8081C0B445A80BDE8F0812E
:1054E00015C3000844C300088DBB0008DC2200205F
:1054F000E022002065C300087CC30008D8220020F9
:1055000090C30008A7C30008C1C30008DCC300089B
:10551000F8B503314FF6FC750D400B2D044604D948
:10552000B5F5C86F02D9002459E00C252D4E32681C
:10553000A24203D82C4B1B689C4206D32B4B2C4910
:105540002C484FF4FA7205F095F833689C4246D324
:10555000254A1268944242D2A4F1080234F8080C99
:10556000D21A92B2A0F10801891A89B2A94219D2BD
:105570001E4B21491F4840F2062205F07BF8D2E776
:1055800005F114068E422AD81C4E02F108010D4482
:105590003768ADB25919B94238BF316000260E7173
:1055A000585313E01BD01E183779002FE8D11F5A2B
:1055B000124802F108010D440168ADB28E4203EBBE
:1055C000050108BF0160002008715F534A8024F87C
:1055D000085C5A5BB2F5C86F01D013445D80204669
:1055E000F8BD00BFDC220020E022002015C3000827
:1055F000A1C400088DBB0008B8C40008D822002050
:105600002DE9F84348B103304FF6FC7505400B2DEA
:1056100005D9B5F5C86F03D90020BDE8F8830C257E
:105620003748384E076831687B1A9BB2C5F5C868A1
:105630006FF007094345EFD2CC1831F803E094F836
:1056400004C0BCF1000F58D1A9EB0302724495428B
:1056500053D805F11408424549D305F108021A440C
:1056600092B201EB020888F804C021F802E0A8F821
:1056700002300123228023718B5AB3F5C86F01D009
:1056800019444A80A742204F11D139683668234611
:105690001A790AB18B422DD18B42036007D032B107
:1056A0001A4B1B491B4840F2CF2204F0E3FF083598
:1056B0003B682544AB4206D2144B174915484FF4BA
:1056C000357204F0D7FFA3070DD0104B13491148D2
:1056D00040F2D62204F0CEFF0C4B11490D484FF496
:1056E000367204F0C7FF04F10800BDE8F883012317
:1056F0002371C7E71B883344CAE773469AE700BFA4
:10570000D8220020DC220020E022002015C300085F
:1057100006C400088DBB00081FC400084FC4000861
:105720007EC4000810B5046854B123680360A30761
:1057300006D0044B0449054840F2491204F09AFF90
:10574000204610BDF8C4000828C500088DBB00081D
:1057500038B58B0705460C4606D0064B0649074868
:1057600040F29D1204F086FF2B681A6822601C60CC
:1057700038BD00BFF8C40008D8C400088DBB0008BD
:105780004368816830B50022033344880A6023F0FF
:105790000303A24200DB30BD0D681D6005880B606D
:1057A00001322B44F5E7000038B5054D002455F8CB
:1057B00024000134FFF7E4FF092CF8D138BD00BF05
:1057C000F0C50008082808B507D8084B53F8203062
:1057D0009868BDE80840FFF7A5BF054B0549064896
:1057E00040F2871204F046FF002008BDF0C5000813
:1057F000F8C40008D3C500088DBB0008082806D9E6
:10580000074B0849084840F2DB1204F033BF29B1C6
:10581000064B53F820000830FFF79ABF704700BFCF
:10582000F8C40008B8C500088DBB0008F0C5000822
:1058300090F82B301B07014602D50431FEF7B2BDAC
:105840007047704773B505460C46B9B10B680193B4
:10585000019A6B689A420FD02E1D01A9304601F0C3
:1058600009FB01A9304603F061FE04B124686C60B5
:1058700014B12846FFF7DCFF02B070BD014B1B6876
:10588000E5E700BF78C1000870B5064615461C461E
:1058900009B10B684BB93046FFF7D4FF05B12D684D
:1058A000B56004B12468F46070BD02B11568B560DC
:1058B00004B12468F4603046BDE87040FFF7C2BF11
:1058C0002DE9F843099E04460F46904699462EB9A5
:1058D000154B16491648FB2204F0CCFE154A03234B
:1058E00084F82030089BE361137884F82E3000257B
:1058F000591C0A9B1170236120466560A560E56014
:1059000084F82B504B4642463946FFF7BDFF2046F0
:10591000B04730B9084B1A6822601C602046BDE8C9
:10592000F8832C46FAE700BF14C6000845C60008F5
:105930008DBB00080823002080580020014B186010
:10594000704700BF8458002090F82B20D10709D45D
:1059500042F00101520780F82B1003D543680BB1C8
:10596000FFF766BF704790F82B30D90707D523F0B3
:1059700001011B0780F82B1001D5FEF761BC7047B1
:1059800038B5044600282FD11F4B2049204840F24B
:105990003F2204F06FFE002038BD88B2257B63688B
:1059A0000DB1032D06D15B1A04F1100293420AD205
:1059B000012038BD013D012D11D800290CDA628982
:1059C0008242F5D35B1A20896360638989B20B44F4
:1059D000014463812181DEE7002AF3D1E8E70A4B25
:1059E0000C4940F277220BE00029D4D0D5DA4842A6
:1059F000638980B28342D1D2034B074940F24722E8
:105A0000034804F037FED3E7C1C800082BC90008DB
:105A10008DBB00080FC90008F1C80008084B002220
:105A200010B51A70074B1C6804B910BD206F20B167
:105A300000F098FC0023236710BDE468F4E700BF82
:105A4000885800209058002070B5049D04281ED866
:105A5000DFE800F02603281B1B0022240334BDF8D6
:105A6000140024F003040E1986424FF000000BD8F6
:105A70001860CDB12C445C6002201A730122587367
:105A800019815981DA81184670BD0024E6E7074B79
:105A90000749084840F2C51204F0ECFD002070BD33
:105AA0003624DBE70E24D9E75D60E5E7C1C80008CE
:105AB00004C700088DBB00080022FFF761BF012268
:105AC000FFF75EBF2DE9F843044650B9284B29493A
:105AD000294840F2D22204F0CDFD26463046BDE8EA
